{
  "_format": "hh-sol-artifact-1",
  "contractName": "PriceFeed",
  "sourceName": "contracts/DataFeed.sol",
  "abi": [
    {
      "inputs": [
        {
          "internalType": "address",
          "name": "clientAddress",
          "type": "address"
        },
        {
          "internalType": "uint256",
          "name": "_blockBuffer",
          "type": "uint256"
        },
        {
          "internalType": "address",
          "name": "_designatedWallet",
          "type": "address"
        },
        {
          "internalType": "uint256",
          "name": "_requesterInd",
          "type": "uint256"
        },
        {
          "internalType": "bytes32",
          "name": "_endpointId",
          "type": "bytes32"
        },
        {
          "internalType": "bytes32",
          "name": "_providerId",
          "type": "bytes32"
        },
        {
          "internalType": "string",
          "name": "_assetBytes",
          "type": "string"
        },
        {
          "internalType": "string",
          "name": "_nameBytes",
          "type": "string"
        }
      ],
      "stateMutability": "payable",
      "type": "constructor"
    },
    {
      "inputs": [],
      "name": "assetBytes",
      "outputs": [
        {
          "internalType": "bytes32",
          "name": "",
          "type": "bytes32"
        }
      ],
      "stateMutability": "view",
      "type": "function"
    },
    {
      "inputs": [],
      "name": "blockBuffer",
      "outputs": [
        {
          "internalType": "uint256",
          "name": "",
          "type": "uint256"
        }
      ],
      "stateMutability": "view",
      "type": "function"
    },
    {
      "inputs": [],
      "name": "designatedWallet",
      "outputs": [
        {
          "internalType": "address",
          "name": "",
          "type": "address"
        }
      ],
      "stateMutability": "view",
      "type": "function"
    },
    {
      "inputs": [],
      "name": "endpointId",
      "outputs": [
        {
          "internalType": "bytes32",
          "name": "",
          "type": "bytes32"
        }
      ],
      "stateMutability": "view",
      "type": "function"
    },
    {
      "inputs": [],
      "name": "getOraclePrice",
      "outputs": [
        {
          "internalType": "int256",
          "name": "",
          "type": "int256"
        }
      ],
      "stateMutability": "view",
      "type": "function"
    },
    {
      "inputs": [],
      "name": "isValidPrice",
      "outputs": [
        {
          "internalType": "bool",
          "name": "",
          "type": "bool"
        }
      ],
      "stateMutability": "view",
      "type": "function"
    },
    {
      "inputs": [],
      "name": "nameBytes",
      "outputs": [
        {
          "internalType": "bytes32",
          "name": "",
          "type": "bytes32"
        }
      ],
      "stateMutability": "view",
      "type": "function"
    },
    {
      "inputs": [],
      "name": "oracle",
      "outputs": [
        {
          "internalType": "contract OracleClient",
          "name": "",
          "type": "address"
        }
      ],
      "stateMutability": "view",
      "type": "function"
    },
    {
      "inputs": [],
      "name": "parameters",
      "outputs": [
        {
          "internalType": "bytes",
          "name": "",
          "type": "bytes"
        }
      ],
      "stateMutability": "view",
      "type": "function"
    },
    {
      "inputs": [],
      "name": "price",
      "outputs": [
        {
          "internalType": "int256",
          "name": "",
          "type": "int256"
        }
      ],
      "stateMutability": "view",
      "type": "function"
    },
    {
      "inputs": [],
      "name": "priceBlock",
      "outputs": [
        {
          "internalType": "uint256",
          "name": "",
          "type": "uint256"
        }
      ],
      "stateMutability": "view",
      "type": "function"
    },
    {
      "inputs": [],
      "name": "providerId",
      "outputs": [
        {
          "internalType": "bytes32",
          "name": "",
          "type": "bytes32"
        }
      ],
      "stateMutability": "view",
      "type": "function"
    },
    {
      "inputs": [],
      "name": "requestOraclePriceFulfillment",
      "outputs": [],
      "stateMutability": "nonpayable",
      "type": "function"
    },
    {
      "inputs": [
        {
          "internalType": "bytes32",
          "name": "requestId",
          "type": "bytes32"
        }
      ],
      "name": "requestOraclePriceUpdate",
      "outputs": [],
      "stateMutability": "nonpayable",
      "type": "function"
    },
    {
      "inputs": [],
      "name": "requesterInd",
      "outputs": [
        {
          "internalType": "uint256",
          "name": "",
          "type": "uint256"
        }
      ],
      "stateMutability": "view",
      "type": "function"
    },
    {
      "inputs": [
        {
          "internalType": "bytes32",
          "name": "",
          "type": "bytes32"
        }
      ],
      "name": "requests",
      "outputs": [
        {
          "internalType": "uint256",
          "name": "",
          "type": "uint256"
        }
      ],
      "stateMutability": "view",
      "type": "function"
    },
    {
      "inputs": [],
      "name": "typeBytes",
      "outputs": [
        {
          "internalType": "bytes32",
          "name": "",
          "type": "bytes32"
        }
      ],
      "stateMutability": "view",
      "type": "function"
    }
  ],
  "bytecode": "0x610120604052604051610e46380380610e46833981810160405261010081101561002857600080fd5b810190808051906020019092919080519060200190929190805190602001909291908051906020019092919080519060200190929190805190602001909291908051604051939291908464010000000082111561008457600080fd5b8382019150602082018581111561009a57600080fd5b82518660018202830111640100000000821117156100b757600080fd5b8083526020830192505050908051906020019080838360005b838110156100eb5780820151818401526020810190506100d0565b50505050905090810190601f1680156101185780820380516001836020036101000a031916815260200191505b506040526020018051604051939291908464010000000082111561013b57600080fd5b8382019150602082018581111561015157600080fd5b825186600182028301116401000000008211171561016e57600080fd5b8083526020830192505050908051906020019080838360005b838110156101a2578082015181840152602081019050610187565b50505050905090810190601f1680156101cf5780820380516001836020036101000a031916815260200191505b50604052505050876000806101000a81548173ffffffffffffffffffffffffffffffffffffffff021916908373ffffffffffffffffffffffffffffffffffffffff1602179055508661010081815250508573ffffffffffffffffffffffffffffffffffffffff1660e08173ffffffffffffffffffffffffffffffffffffffff1660601b815250508460c081815250508360a081815250508260808181525050816040516020018082805190602001908083835b602083106102a55780518252602082019150602081019050602083039250610282565b6001836020036101000a03801982511681845116808217855250505050505090500191505060405160208183030381529060405280519060200120600181905550806040516020018082805190602001908083835b6020831061031d57805182526020820191506020810190506020830392506102fa565b6001836020036101000a03801982511681845116808217855250505050505090500191505060405160208183030381529060405280519060200120600281905550505050505050505060805160a05160c05160e05160601c61010051610a806103c6600039806103c352806106e452806107205250806108985280610a045250806108775280610a285250806105ce528061085652508061062052806108355250610a806000f3fe608060405234801561001057600080fd5b506004361061010b5760003560e01c806389035730116100a2578063a035b1fe11610071578063a035b1fe14610329578063c500e0a614610347578063e073aa5314610351578063e5ffcf8e1461036f578063fb67fcff146103a35761010b565b806389035730146102265780638dcfccb5146102a95780639cf167ab146102c95780639d866985146102e75761010b565b806377e20df8116100de57806377e20df814610198578063796da7af146101b65780637dc0d1d0146101d45780638490a8df146102085761010b565b80632dee6d521461011057806349be45de1461013e57806350c54b5e1461015c5780635293d2d01461017a575b600080fd5b61013c6004803603602081101561012657600080fd5b81019080803590602001909291905050506103c1565b005b6101466105ba565b6040518082815260200191505060405180910390f35b6101646105c0565b6040518082815260200191505060405180910390f35b6101826105c6565b6040518082815260200191505060405180910390f35b6101a06105cc565b6040518082815260200191505060405180910390f35b6101be6105f0565b6040518082815260200191505060405180910390f35b6101dc6105fa565b604051808273ffffffffffffffffffffffffffffffffffffffff16815260200191505060405180910390f35b61021061061e565b6040518082815260200191505060405180910390f35b61022e610642565b6040518080602001828103825283818151815260200191508051906020019080838360005b8381101561026e578082015181840152602081019050610253565b50505050905090810190601f16801561029b5780820380516001836020036101000a031916815260200191505b509250505060405180910390f35b6102b16106e0565b60405180821515815260200191505060405180910390f35b6102d161071e565b6040518082815260200191505060405180910390f35b610313600480360360208110156102fd57600080fd5b8101908080359060200190929190505050610742565b6040518082815260200191505060405180910390f35b61033161075a565b6040518082815260200191505060405180910390f35b61034f610760565b005b6103596109de565b6040518082815260200191505060405180910390f35b610377610a02565b604051808273ffffffffffffffffffffffffffffffffffffffff16815260200191505060405180910390f35b6103ab610a26565b6040518082815260200191505060405180910390f35b7f000000000000000000000000000000000000000000000000000000000000000043036005600083815260200190815260200160002054101561046c576040517f08c379a000000000000000000000000000000000000000000000000000000000815260040180806020018281038252600f8152602001807f657870697265642072657175657374000000000000000000000000000000000081525060200191505060405180910390fd5b60008060009054906101000a900473ffffffffffffffffffffffffffffffffffffffff1673ffffffffffffffffffffffffffffffffffffffff1663406c6d6c836040518263ffffffff1660e01b815260040180828152602001915050602060405180830381600087803b1580156104e257600080fd5b505af11580156104f6573d6000803e3d6000fd5b505050506040513d602081101561050c57600080fd5b8101908080519060200190929190505050905060008113610595576040517f08c379a00000000000000000000000000000000000000000000000000000000081526004018080602001828103825260138152602001807f756e66756c66696c6c656420726571756573740000000000000000000000000081525060200191505060405180910390fd5b8060048190555060056000838152602001908152602001600020546003819055505050565b60025481565b60015481565b60035481565b7f000000000000000000000000000000000000000000000000000000000000000081565b6000600454905090565b60008054906101000a900473ffffffffffffffffffffffffffffffffffffffff1681565b7f000000000000000000000000000000000000000000000000000000000000000081565b60068054600181600116156101000203166002900480601f0160208091040260200160405190810160405280929190818152602001828054600181600116156101000203166002900480156106d85780601f106106ad576101008083540402835291602001916106d8565b820191906000526020600020905b8154815290600101906020018083116106bb57829003601f168201915b505050505081565b60007f0000000000000000000000000000000000000000000000000000000000000000600354014310610716576000905061071b565b600190505b90565b7f000000000000000000000000000000000000000000000000000000000000000081565b60056020528060005260406000206000915090505481565b60045481565b60607f31620000000000000000000000000000000000000000000000000000000000007f73796d626f6c00000000000000000000000000000000000000000000000000007f54534c4100000000000000000000000000000000000000000000000000000000604051602001808481526020018381526020018281526020019350505050604051602081830303815290604052905060008060009054906101000a900473ffffffffffffffffffffffffffffffffffffffff1673ffffffffffffffffffffffffffffffffffffffff1663969980a47f00000000000000000000000000000000000000000000000000000000000000007f00000000000000000000000000000000000000000000000000000000000000007f00000000000000000000000000000000000000000000000000000000000000007f0000000000000000000000000000000000000000000000000000000000000000876040518663ffffffff1660e01b8152600401808681526020018581526020018481526020018373ffffffffffffffffffffffffffffffffffffffff16815260200180602001828103825283818151815260200191508051906020019080838360005b8381101561093557808201518184015260208101905061091a565b50505050905090810190601f1680156109625780820380516001836020036101000a031916815260200191505b509650505050505050602060405180830381600087803b15801561098557600080fd5b505af1158015610999573d6000803e3d6000fd5b505050506040513d60208110156109af57600080fd5b810190808051906020019092919050505090504360056000838152602001908152602001600020819055505050565b7f316200000000000000000000000000000000000000000000000000000000000081565b7f000000000000000000000000000000000000000000000000000000000000000081565b7f00000000000000000000000000000000000000000000000000000000000000008156fea26469706673582212204202e6c799d3106b466b8314b8037dea197fc0c1aced102fb5394160a6407c4e64736f6c634300060c0033",
  "linkReferences": {},
  "deployedLinkReferences": {}
}